{
  "contractName": "Tether",
  "abi": [
    {
      "constant": true,
      "inputs": [],
      "name": "decimals",
      "outputs": [
        {
          "internalType": "uint8",
          "name": "",
          "type": "uint8"
        }
      ],
      "payable": false,
      "stateMutability": "view",
      "type": "function"
    },
    {
      "constant": true,
      "inputs": [],
      "name": "name",
      "outputs": [
        {
          "internalType": "string",
          "name": "",
          "type": "string"
        }
      ],
      "payable": false,
      "stateMutability": "view",
      "type": "function"
    },
    {
      "constant": true,
      "inputs": [],
      "name": "synmbol",
      "outputs": [
        {
          "internalType": "string",
          "name": "",
          "type": "string"
        }
      ],
      "payable": false,
      "stateMutability": "view",
      "type": "function"
    },
    {
      "constant": true,
      "inputs": [],
      "name": "totalSupply",
      "outputs": [
        {
          "internalType": "uint256",
          "name": "",
          "type": "uint256"
        }
      ],
      "payable": false,
      "stateMutability": "view",
      "type": "function"
    }
  ],
  "bytecode": "0x60c060405260066080819052652a32ba3432b960d11b60a09081526100279160009190610081565b50604080518082019091526004808252631554d11560e21b602090920191825261005391600191610081565b5069d3c21bcecceda10000006002556003805460ff1916601217905534801561007b57600080fd5b5061011c565b828054600181600116156101000203166002900490600052602060002090601f016020900481019282601f106100c257805160ff19168380011785556100ef565b828001600101855582156100ef579182015b828111156100ef5782518255916020019190600101906100d4565b506100fb9291506100ff565b5090565b61011991905b808211156100fb5760008155600101610105565b90565b61023a8061012b6000396000f3fe608060405234801561001057600080fd5b506004361061004c5760003560e01c806306fdde031461005157806318160ddd146100ce578063313ce567146100e8578063bffe664914610106575b600080fd5b61005961010e565b6040805160208082528351818301528351919283929083019185019080838360005b8381101561009357818101518382015260200161007b565b50505050905090810190601f1680156100c05780820380516001836020036101000a031916815260200191505b509250505060405180910390f35b6100d661019c565b60408051918252519081900360200190f35b6100f06101a2565b6040805160ff9092168252519081900360200190f35b6100596101ab565b6000805460408051602060026001851615610100026000190190941693909304601f810184900484028201840190925281815292918301828280156101945780601f1061016957610100808354040283529160200191610194565b820191906000526020600020905b81548152906001019060200180831161017757829003601f168201915b505050505081565b60025481565b60035460ff1681565b60018054604080516020600284861615610100026000190190941693909304601f810184900484028201840190925281815292918301828280156101945780601f106101695761010080835404028352916020019161019456fea265627a7a72315820a0ecd11f33bda9f1970eea9a7fb332d0bb75795b6052a1cde956cdf4b7e2d75a64736f6c63430005110032",
  "source": "// SPDX-License-Identifier: MIT\r\npragma solidity >=0.4.22 <0.9.0;\r\ncontract Tether{\r\n    string public name ='Tether';\r\n    string public synmbol='USDT';\r\n    uint public totalSupply =1000000000000000000000000;\r\n    uint8 public decimals= 18;\r\n}",
  "sourcePath": "C:\\Users\\H\\Desktop\\Mahdi Gachloo\\defi-staking-app-starter\\contracts\\Tether.sol",
  "compiler": {
    "name": "solc",
    "version": "0.5.17+commit.d19bba13.Emscripten.clang"
  },
  "schemaVersion": "3.4.4",
  "updatedAt": "2022-04-02T13:45:56.511Z",
  "networkType": "ethereum",
  "devdoc": {
    "methods": {}
  },
  "userdoc": {
    "methods": {}
  }
}